{
  "contractName": "Election",
  "abi": [
    {
      "inputs": [],
      "payable": false,
      "stateMutability": "nonpayable",
      "type": "constructor"
    },
    {
      "anonymous": false,
      "inputs": [
        {
          "indexed": true,
          "internalType": "uint256",
          "name": "_candidateId",
          "type": "uint256"
        }
      ],
      "name": "votedEvent",
      "type": "event"
    },
    {
      "constant": true,
      "inputs": [
        {
          "internalType": "uint256",
          "name": "",
          "type": "uint256"
        }
      ],
      "name": "candidates",
      "outputs": [
        {
          "internalType": "uint256",
          "name": "id",
          "type": "uint256"
        },
        {
          "internalType": "string",
          "name": "name",
          "type": "string"
        },
        {
          "internalType": "uint256",
          "name": "voteCount",
          "type": "uint256"
        }
      ],
      "payable": false,
      "stateMutability": "view",
      "type": "function"
    },
    {
      "constant": true,
      "inputs": [],
      "name": "candidatesCount",
      "outputs": [
        {
          "internalType": "uint256",
          "name": "",
          "type": "uint256"
        }
      ],
      "payable": false,
      "stateMutability": "view",
      "type": "function"
    },
    {
      "constant": true,
      "inputs": [
        {
          "internalType": "address",
          "name": "",
          "type": "address"
        }
      ],
      "name": "voters",
      "outputs": [
        {
          "internalType": "bool",
          "name": "",
          "type": "bool"
        }
      ],
      "payable": false,
      "stateMutability": "view",
      "type": "function"
    },
    {
      "constant": false,
      "inputs": [
        {
          "internalType": "uint256",
          "name": "_candidateId",
          "type": "uint256"
        }
      ],
      "name": "vote",
      "outputs": [],
      "payable": false,
      "stateMutability": "nonpayable",
      "type": "function"
    }
  ],
  "bytecode": "0x608060405234801561001057600080fd5b506100556040518060400160405280600b81526020017f43616e646964617465203100000000000000000000000000000000000000000081525061009e60201b60201c565b6100996040518060400160405280600b81526020017f43616e646964617465203200000000000000000000000000000000000000000081525061009e60201b60201c565b6101be565b6002600081548092919060010191905055506040518060600160405280600254815260200182815260200160008152506000806002548152602001908152602001600020600082015181600001556020820151816001019080519060200190610108929190610119565b506040820151816002015590505050565b828054600181600116156101000203166002900490600052602060002090601f016020900481019282601f1061015a57805160ff1916838001178555610188565b82800160010185558215610188579182015b8281111561018757825182559160200191906001019061016c565b5b5090506101959190610199565b5090565b6101bb91905b808211156101b757600081600090555060010161019f565b5090565b90565b6103e9806101cd6000396000f3fe608060405234801561001057600080fd5b506004361061004c5760003560e01c80630121b93f146100515780632d35a8a21461007f5780633477ee2e1461009d578063a3ec138d14610152575b600080fd5b61007d6004803603602081101561006757600080fd5b81019080803590602001909291905050506101ae565b005b6100876102cc565b6040518082815260200191505060405180910390f35b6100c9600480360360208110156100b357600080fd5b81019080803590602001909291905050506102d2565b6040518084815260200180602001838152602001828103825284818151815260200191508051906020019080838360005b838110156101155780820151818401526020810190506100fa565b50505050905090810190601f1680156101425780820380516001836020036101000a031916815260200191505b5094505050505060405180910390f35b6101946004803603602081101561016857600080fd5b81019080803573ffffffffffffffffffffffffffffffffffffffff169060200190929190505050610394565b604051808215151515815260200191505060405180910390f35b600160003373ffffffffffffffffffffffffffffffffffffffff1673ffffffffffffffffffffffffffffffffffffffff16815260200190815260200160002060009054906101000a900460ff161561020557600080fd5b60008111801561021757506002548111155b61022057600080fd5b60018060003373ffffffffffffffffffffffffffffffffffffffff1673ffffffffffffffffffffffffffffffffffffffff16815260200190815260200160002060006101000a81548160ff02191690831515021790555060008082815260200190815260200160002060020160008154809291906001019190505550807ffff3c900d938d21d0990d786e819f29b8d05c1ef587b462b939609625b684b1660405160405180910390a250565b60025481565b6000602052806000526040600020600091509050806000015490806001018054600181600116156101000203166002900480601f0160208091040260200160405190810160405280929190818152602001828054600181600116156101000203166002900480156103845780601f1061035957610100808354040283529160200191610384565b820191906000526020600020905b81548152906001019060200180831161036757829003601f168201915b5050505050908060020154905083565b60016020528060005260406000206000915054906101000a900460ff168156fea265627a7a723158203e5bef8854a566423ae58ccddc2a3c75970ff260623fc7f76da48ff09df96a1464736f6c63430005100032",
  "source": "pragma solidity >=0.5.16 <0.7.0;\r\n\r\ncontract Election {\r\n    // Model a Candidate\r\n    struct Candidate {\r\n        uint id;\r\n        string name;\r\n        uint voteCount;\r\n    }\r\n\r\n    /*trigger an event whenever a vote is cast.\r\n    This will allow us to update our client-side\r\n    application when an account has voted.\r\n    */\r\n\r\n    event votedEvent (\r\n        uint indexed _candidateId\r\n    );\r\n\r\n\r\n    // Read/write candidates\r\n    mapping(uint => Candidate) public candidates;\r\n\r\n     // Store accounts that have voted\r\n    mapping(address => bool) public voters;\r\n\r\n    // Store Candidates Count\r\n    uint public candidatesCount;\r\n\r\n    constructor() public\r\n    {\r\n        addCandidate(\"Candidate 1\");\r\n        addCandidate(\"Candidate 2\");\r\n    }\r\n    //Storage:storage key forces the newly created variable to point\r\n    //to the state variable (items) and not a copy. Any changes made to the new variable\r\n    //will directly change the structure of the contract state variable.\r\n\r\n\r\n    //Memory:The memory option functions as a copy as opposed to a pointer.\r\n    //Thus, using the memory key and making mutations on the\r\n    //newly created variable WILL NOT affect the original state variable.\r\n    function addCandidate (string memory _name) private\r\n    {\r\n        candidatesCount ++;\r\n        candidates[candidatesCount] = Candidate(candidatesCount, _name, 0);\r\n    }\r\n     /*\r\n    1. It accepts one argument. This is an unsigned integer with the candidate's id.\r\n    2. Its visibility is public because we want an external account to call it.\r\n    3. It adds the account that voted to the voters mapping that we just created.\r\n        This will allow us to keep track that the voter has voted in the election.\r\n        We access the account that's calling this function with the global variable \"msg.sender\" provided by Solidity.\r\n    4. It implements require statements that will stop execution if the conditions are not met.\r\n    First require that the voter hasn't voted before. We do this by reading the account address with \"msg.sender\" from the mapping.\r\n    If it's there, the account has already voted. Next, it requires that the candidate id is valid.\r\n    The candidate id must be greater than zero and less than or equal to the total candidate count.\r\n    */\r\n\r\n\r\n    // function vote (uint _candidateId) public {\r\n    //     // require that they haven't voted before\r\n    //     require(!voters[msg.sender]);\r\n\r\n    //     // require a valid candidate\r\n    //     require(_candidateId > 0 && _candidateId <= candidatesCount);\r\n\r\n    //     // record that voter has voted\r\n    //     voters[msg.sender] = true;\r\n\r\n    //     // update candidate vote Count\r\n    //     candidates[_candidateId].voteCount ++;\r\n    // }\r\n\r\n\r\n\r\n    function vote (uint _candidateId) public\r\n    {\r\n    // require that they haven't voted before\r\n    require(!voters[msg.sender]);\r\n\r\n    // require a valid candidate\r\n    require(_candidateId > 0 && _candidateId <= candidatesCount);\r\n\r\n    // record that voter has voted\r\n    voters[msg.sender] = true;\r\n\r\n    // update candidate vote Count\r\n    candidates[_candidateId].voteCount ++;\r\n\r\n    // trigger voted event(use emit statements to trigger an event)\r\n    emit votedEvent(_candidateId);\r\n}\r\n\r\n}",
  "sourcePath": "D:\\dapp23march20\\contracts\\Election.sol",
  "compiler": {
    "name": "solc",
    "version": "0.5.16+commit.9c3226ce.Emscripten.clang"
  },
  "schemaVersion": "3.0.23",
  "updatedAt": "2020-03-23T16:16:56.504Z",
  "networkType": "ethereum",
  "devdoc": {
    "methods": {}
  },
  "userdoc": {
    "methods": {}
  }
}